:020000040800F2
:100000000000022059560008A9560008A956000809
:10001000A9560008A9560008A956000800000000CB
:10002000000000000000000000000000A9560008C9
:10003000A956000800000000A9560008F741000872
:10004000A9560008A9560008A9560008A956000894
:10005000A9560008A9560008ED420008F34200081E
:10006000F9420008FF42000805430008A9560008AD
:10007000A9560008A9560008A9560008A956000864
:10008000A9560008A9560008A9560008A956000854
:10009000A9560008A9560008A95600080B430008F5
:1000A000E93E0008013E0008FD3E0008253E00082C
:1000B000393E00084D3E0008613E0008791B0008EB
:1000C000851B0008911B00089D1B0008A95600080D
:1000D000A9560008B94F0008D14F0008ED4F00089D
:1000E00033430008A9560008A9560008113F00082C
:1000F000B13E0008253F0008D53E0008A95600087B
:10010000A9560008A9560008753E0008A95600081F
:100110000950000821500008893E00089D3E000853
:10012000A9560008A9560008A9560008A9560008B3
:10013000A9560008A9560008A9560008A9560008A3
:10014000A9560008A9560008A9560008A956000893
:10015000A9560008A9560008A956000839500008F9
:10016000A91B0008B51B0008A9560008A9560008DD
:10017000A9560008A9560008A9560008000000006A
:08018000A9560008A956000869
:10018800034613F8012B002AFBD1181A01387047CF
:1001980053B94AB9002908BF00281CBF4FF0FF31E6
:1001A8004FF0FF3000F00CB8ADF1080C6DE904CE4B
:1001B80005F01AFDDDF804E0DDE9022304B070471C
:1001C800704700BF10B5054C237833B9044B13B101
:1001D8000448AFF300800123237010BD9400002071
:1001E80000000000F05E000808B5034B1BB103498E
:1001F8000348AFF3008008BD00000000980000200D
:10020800F05E000808B506224FF4E1312A4805F0EF
:1002180023F94FF47A7005F0E9FA2849264805F0E1
:10022800C5F92748002101F0CDFC2649224805F0F0
:10023800BDF92348012101F0F7FC21484FF478412A
:1002480000F0C6FB20491C4805F0B0F94FF47A705D
:1002580005F0CCFA1A484FF4FC6100F0B9FB1B49D1
:10026800154805F0A3F94FF47A7005F0BFFA144861
:100278001F2100F0ADFB16490F4805F097F94FF420
:100288007A7005F0B3FA0E48002100F0A1FB0C4A81
:100298004FF01413136110464FF0FF3302215361DE
:1002A80000F02FFE0B49064805F080F9BDE808402C
:1002B8000949014805F07AB9EC030020085F0008F5
:1002C800B00000200E5F0008185F00081C5F0008DF
:1002D800225F0008275F0008135F000808B505497A
:1002E800054805F063F9BDE808404FF47A7005F059
:1002F8007DBA00BF355F0008EC03002004486FF0AA
:1003080038036FF039026FF0370101F001BD00BF0B
:10031800B00000202DE9F0411646444ADDF8188067
:100328001C460123C0E91B230D465C220021074619
:1003380005F070FBF3B24A2B28D83D4A52F8233017
:1003480006F4E0661E43EBB24A2BFE6532D8384A03
:1003580052F8233005F4E0651D43E3B24A2B3D66AD
:100368003CD8334A52F8233004F4E0641C435FFA63
:1003780088F24A2A7C6645D82D4951F8222008F48B
:10038800E0631343BB663846BDE8F08106F0C0025F
:10039800C02A0CD1CF2B0AD8264B06F03F0206F410
:1003A800E06653F82220224B53F82230CAE74FF078
:1003B800FF36C8E705F0C002C02A0CD1CF2B0AD8F7
:1003C8001C4B05F03F0205F4E06553F82220184B5A
:1003D80053F82230C0E74FF0FF35BEE704F0C00203
:1003E800C02A0CD1CF2B0AD8124B04F03F0204F4D8
:1003F800E06453F822200E4B53F82230B6E74FF052
:10040800FF34B4E708F0C003C02B0CD1CF2A0AD8B8
:10041800084B08F03F0253F82210054A08F4E0633D
:1004280052F82120ADE74FF0FF33ABE700093D005C
:10043800EC6C0008AC6C000837B501230D460022AF
:10044800074980F85120C16680F8703080F8712023
:1004580080F87250009500F079F803B030BD00BF05
:1004680000093D001FB502AB83E80600C16E029A81
:100478009142044605D1026F03994A4032F07F4207
:1004880010D09A8802989B79E066A4F8702084F8C6
:100498007230009394F8703094F87120E16E204621
:1004A80000F054F804B010BD704707B5002A8DF865
:1004B80007100DF107014FF001030CBF0A46002297
:1004C80000F06AF99DF8070003B05DF804FB00002E
:1004D80007B54B2300934A22072306210248FFF75A
:1004E80019FF03B05DF804FBF400002030B591FA61
:1004F800A1F391FAA1F1B3FA83F3C4685B00032571
:10050800B1FA81F105FA03F3490024EA03038A40AA
:100518001A43C26030BD0000084A0346106863B140
:10052800074A934201D102F0F5BE064A934201D12F
:1005380002F0E0BE044A9342FAD070473C00002023
:100548000030014000380040003C00402DE9F04FE9
:100558000E4685B015461F460446002800F0C680A2
:100568008349006E04F032F882498146E06D04F058
:100578002DF881498346606E04F028F87F4980464B
:10058800A06E04F023F88246B9F1000F00F0AE80A7
:10059800BBF1000F00F0AA80B8F1000F00F0A680B0
:1005A8005946484604F039F851468146404604F019
:1005B80034F801468046484604F02FF8A065B9F1A2
:1005C800000F00F09380B8F1000F00F08F80002832
:1005D80000F08C80A26E9DF838302060511C0CBF52
:1005E8004FF400724FF48022002B14BF00234FF405
:1005F8008273A2616360FFF78FFFB6EB500F78D26A
:10060800B6EB900F77D2B6EBD00F76D2B6EB101FC1
:1006180075D2B6EB501F74D2B6EB901F73D2B6EBFF
:10062800D01F2CBF30233823E361002D6DD0022D5D
:100638006DD0013D18BF01256D000123B7FA87F77A
:10064800C4E904537F09072300269F40E362484911
:10065800206EA660C4E90876A662E66003F09EFFF5
:100668004449E06D03F09AFF606E434903F096FF3A
:100678002369B342636EC3F3031114BF012202223C
:10068800082998BF3E4803F00F0398BF50F821008F
:100698003C4988BF3046022A51F8231018BF01226E
:1006A800FFF724FF3549A06E03F078FF2368364A28
:1006B80093422ED100230193344B5A6C42F480525A
:1006C8005A645A6C02F480520192019A5A6A42F4AE
:1006D80080525A625A6A22F480525A62204602F0C4
:1006E8002AFE2268136843F04003136005B0BDE892
:1006F800F08F002398E7082396E7102394E7182340
:1007080092E7202390E728238EE72B4696E70023DD
:1007180094E71F4A934214D1002302931B4B1A6C8F
:1007280042F480421A641A6C02F480420292029ADD
:100738001A6A42F480421A621A6A22F480421A62E1
:10074800CCE7144A9342C9D1002303930F4B1A6C88
:1007580042F400421A641A6C02F400420392039AAB
:100768001A6A42F400421A621A6A22F40042E6E760
:1007780048670008F4660008A06600084C66000890
:1007880010000020F46500080030014000380240E5
:1007980000380040003C00402DE9F0410D46164667
:1007A8001C4633B3076801F011FB8046BB68990704
:1007B800FCD5D5B115F8013B3B73BB68DA07FCD50E
:1007C8003B7B0EB106F8013B01F000FBA0EB0800F3
:1007D800B0F57A7F04F1FF3409D2002CE6D1204627
:1007E800BB681B06FCD4BDE8F081FF23E4E70120C9
:1007F800F6E70220F7E70020704770472DE9F04F31
:1008080085B01D46BDF93840BDF83C300093A4EBD7
:100818000208A5EB0109B8F1000FB8BFC8F100083C
:10082800B9F1000FB8BFC9F10009C8451746164607
:100838008246A4462A460B4605DC22463B462C4601
:100848000F4665463146A74208DC1E461346324627
:100858002E460D46314626463C4637469B1A3E1BD9
:1008680083EAE372A2EBE372C6F3C033B0B203FAD1
:1008780086F68D42B4BF01234FF0FF3301900292F8
:1008880076100393BC4202DD05B0BDE8F08FDAF8BC
:100898000030C845D3F818B0009BC7BF2246294688
:1008A8002A4621465046D847029BF61AB3B236B2BA
:1008B800002E05DA039A1544019A13442DB21EB28C
:1008C800013424B2DEE7704710B404682469A446F2
:1008D8005DF8044B604730B40468BDF808500295D1
:1008E800A46BA44630BC604730B40468BDF8085017
:1008F8000295E46BA44630BC604770B4BDF90C5057
:10090800BDF810600468CDE90356246CA44670BC99
:1009180060472DE9F3411C460368BDF820805B69F8
:1009280005461646013C34440F4624B298472B68C6
:10093800CDF8048000949C6A28463B4632463946E6
:10094800A0472B68DB6A284602B0BDE8F04118478B
:100958002DE9F3411D460368BDF820805B69044614
:1009680017460E4698472268CDE900786B1E334437
:10097800956A20461BB23A463146A8472368DB6A87
:10098800204602B0BDE8F04118472DE9F3471E465E
:100998000368BDF928805B69BDF82C900C460546B4
:1009A800174698472644B4422B6805DBDB6A28467D
:1009B80002B0BDE8F0471847CDF80090D3F820A062
:1009C800214643463A4628460134D04724B2EAE74E
:1009D80013B502680191B0F90E100091146CB0F9CA
:1009E8000C3000221146A04702B010BD2DE9F34794
:1009F8001D460368BDF82C805B69BDF92890044644
:100A08000F46164698472368CDF80080D3F824A0EF
:100A180032462B4639462046D0472368CDF8008019
:100A280009F1FF323244D3F824A039462B46204638
:100A380012B2D0472368CDF80080D3F820A0324600
:100A48004B4639462046D047013D2368CDF8008003
:100A5800E91920461D6A32464B4609B2A847236861
:100A6800DB6A204602B0BDE8F047184770472DE919
:100A7800F74399421546BDF92860BDF82C900268E5
:100A880007460C46984611D1B542D8BF3346CDF833
:100A98002890DCBF2E461D466B1C956B9B1B1BB21A
:100AA8003246AC4603B0BDE8F0436047B5420FD1CB
:100AB8009942D8BF1C46CDF82890D66BD8BF884637
:100AC8000134A4EB080423B22A464146B446E9E7B8
:100AD800536998473B68CDE9006938469E6A2A46BB
:100AE80043462146B0473B68DB6A384603B0BDE859
:100AF800F043184701F003038376B0F90830B0F9E2
:100B08000A20C9075EBF194613460A468281C38177
:100B18007047000030B54281C281074A074D018104
:100B2800002481814FF0FF31C0E90512446005605F
:100B380004610477046230BD01010001485F0008C8
:100B48002DE9F04F93B01F460292026ABDF870304B
:100B5800BDF874809DF878509DF87C4003938346D7
:100B68000E46002A40F0C080B0F90C308B4240F3AA
:100B78004181B0F90E30029A934240F33B8106233B
:100B880015FB0313002B40F3358102EBC403002B44
:100B980040F33081037F1BB9AF2F84BF0137FFB209
:100BA800DBF8003058465B69984705220992002215
:100BB8000492924ABDF808A007EB8703D3180D9357
:100BC800049A0D9B9B5C0693BDF810300793B3B253
:100BD800059302FB05F313FA86F31BB20893082367
:100BE8000A932BB20B9323B24FF000090C93069A89
:100BF800DBF80030D20751D5012D1FFA89F23ED11A
:100C0800012C3CD19B69079905981F46039B5244C8
:100C1800014412B209B25846B847069B5B080693CE
:100C28000A9B013B09F1010913F0FF034FFA89F907
:100C38000A93DCD1049F01377BB20493099B013BE3
:100C480013F0FF030993BBD1039B43450FD0012D3C
:100C5800DBF8003039D1012C37D10599CDF8008067
:100C680005311C6A029A082309B25846A047DBF8E6
:100C78000030DB6A584613B0BDE8F04F18470399B7
:100C8800019114FB02F252440C990091DB69089916
:100C98001F4612B20B9B5846B847BEE7039A424517
:100CA800BBD0012D1FFA89F209D1012C07D19B690C
:100CB800079905981F46524401444346A9E714FB87
:100CC80002F25244CDF80480DEE70599CDF804809D
:100CD80005EB8502E40011440094DC69029A2B4676
:100CE80009B25846A047C2E7137A516812680B92B6
:100CF800FF1AFFB201EBC70331F8372004929A7844
:100D080093F905A00792DA7893F90630089345EA33
:100D18000403012B87BF089B06930023CDE9053305
:100D280003680C925B6988BFCDF814A09847B3B2EA
:100D3800002710931AFA86F3B946B84611930C9B0C
:100D4800984594D2BDF808300993069B029A43440B
:100D580013FB04F313FA82F32AB21BB20E9222B2E7
:100D68000A9300263B460F9229E05A1CD2B25B0731
:100D78000D9207D1049B04990B9A01339BB212F888
:100D88000190049319F0800F12D0012DDBF8003088
:100D98001FD1012C1DD1DDE908120A441199D3F89D
:100DA80018A0039B4244711812B209B25846D047A2
:100DB8004FEA490901360D9B5FFA89F9F6B2079A9D
:100DC8009642D2D3174408F10108FFB25FFA88F8B7
:100DD800B5E7059A9119109A01FB0521039A01922A
:100DE8000F9A0092D3F81CA00A9A0E9B09B2584693
:100DF800D047DDE713B0BDE8F08F00BF985F00086B
:100E0800F0B5026A85B004460B46002A34D10A2997
:100E180008D1438A0282427E03EBC2036382012027
:100E280005B0F0BD0D29FAD0E17E007E657E71B176
:100E3800B4F91060062110FB0161B4F90C60B142ED
:100E4800C1BFB4F91210228201EBC5026282CDE95A
:100E58000205E28A0192A28A0092B4F91220B4F93A
:100E680010102046FFF76CFE237E228A03EB430313
:100E780002EB43032382D2E70A2907D10023038226
:100E8800417E127B438A01FB0233C7E70D29C6D096
:100E9800117A8B42C3D3907A9842C0D35568591AB5
:100EA800C9B205EBC105A97829B3E87818B3E07E83
:100EB800267E677E90B195F905000844B4F91010B4
:100EC80006FB0011B4F90C00814207DD00202082E6
:100ED800B4F91210127B02FB07126282CDE9026795
:100EE800E28A0192A28A0092B4F91220B4F9101091
:100EF8002046FFF725FE2979227E238A01FB02334B
:100F0800B8E7012938BF01210176417670470021F1
:100F180004F032BC012104F02FBC002104F02CBCE9
:100F2800012104F029BC002104F026BC012104F0B1
:100F380023BC002104F020BC012104F01DBC0000EA
:100F480038B512B2044609B21D46FFF7E3FD0B4B54
:100F580023609DF9183084F835309DF9103084F8F5
:100F6800363000229DF9143084F8342084F8373064
:100F7800A287A26322646562204638BDA064000887
:100F880030B585B004469DF9245002959DF920504E
:100F9800CDE90035024BFFF7D3FF204605B030BD41
:100FA800F4000020F8B5424B044690F936000029B9
:100FB80014BF0F461F460028164607DB012104F020
:100FC80071FB94F93600012104F0D6FB94F937003F
:100FD800012104F067FB94F93700012104F0CCFBF0
:100FE80094F834506DBB0123606AA76284F82C30F2
:100FF80084F82D6084F82E5026632946FFF71CFAE2
:1010080094F93500002851DB012104F04BFB94F9D9
:101018003500012104F0B0FB642004F0E7FB94F9EB
:101028003500002104F0A8FB642004F0DFFB94F9EC
:101038003500012104F0A0FBBDE8F840C82004F009
:10104800D5BB012D1BD194F92400294604F02AFBB5
:1010580094F92400002104F08FFB94F92600294616
:1010680004F020FB94F92600002104F085FB94F994
:1010780025000028C4DB002104F014FBC0E794F924
:101088002500012104F00EFB94F92500012104F04C
:1010980073FB94F926000028B2DB012104F002FB5F
:1010A80094F92600012104F067FBA9E7F8BD00BF09
:1010B8000024F40090F8343023B9D0E90A12406AC9
:1010C800FFF7D0B9704710B50446FFF7F3FF94F95E
:1010D8003600002803DBBDE81040FFF72ABF10BD2B
:1010E80090F8343013B9406AFFF7DEB9704710B58D
:1010F800044690F93600002801DBFFF71DFF204663
:10110800FFF7EEFF10BD10B50446002190F9250049
:1011180004F032FB94F925000121BDE8104004F0E9
:101128002BBB2DE9F04105460E4614468AB190F8CE
:1011380034304FEA1128CFB26BB900224146686AB1
:10114800FFF7B3F9686A00223946FFF7AEF9013CA8
:10115800F3D1BDE8F081012B1ED1B046102718F459
:10116800004F95F9240014D0FFF7DAFE95F9260010
:10117800013FFFF7CFFE4FEA480895F92600BFB2B6
:10118800FFF7C5FE1FFA88F8002FE8D1013CE4D12B
:10119800DFE7FFF7C2FEE9E7B845DAD02846FFF7F0
:1011A800B2FF013CFAD1D4E72DE9F3411D46BDF861
:1011B800203000930368BDF92070D3F85480BDF83F
:1011C8002460ABB292B289B20446C04705FB07F26D
:1011D8003146204602B0BDE8F041FFF7A2BF2DE935
:1011E800F341BDF92040002B45D0002C43D0002B03
:1011F80005DA013111FA83F15B4209B21BB2B0F989
:101208000C608E4237DD002C05DA013212FA84F2C6
:10121800644212B224B2B0F90E5095422BDD01EBB4
:1012280003081FFA88F808F1FF3C0FFA8CFCBCF1A0
:10123800000F20DB02EB040E1FFA8EFE0EF1FF37C3
:101248003FB2002F17DB0029BCBF0FFA88F300213B
:10125800002ABCBF0FFA8EF400226645DCBF761A5E
:1012680033B2BD42DCBFAD1A2CB2BDF82450CDE973
:101278000045FFF799FF02B0BDE8F0812DE9F7437B
:101288008046BDF92870BDF82C900C4615461E46C0
:10129800002B52D0002F50D0002B05DA013414FA5D
:1012A80083F45E4224B236B2B8F90C20A24244DD7F
:1012B800002F05DA013515FA87F57F422DB23FB2C6
:1012C800B8F90E30AB4238DD04EB060E1FFA8EFE7D
:1012D8000EF1FF3000B200282FDB05EB070C1FFAD8
:1012E8008CFC0CF1FF3109B2002926DB002CBCBFB5
:1012F8000FFA8EF60024002DBCBF0FFA8CF70025DC
:101308008242DCBF121B16B28B42DCBF5B1B1FB2D2
:10131800D8F8003040465B69984733464046CDE9E7
:1013280000792A462146FFF73FFFD8F80030DB6AEC
:10133800404603B0BDE8F043184703B0BDE8F0836A
:101348002DE9F341171EBDF8208006460C461D46C0
:1013580033DBB0F90E30BB422FDD002D2DD005DA7E
:10136800013414FA85F46D4224B22DB2B6F90C306A
:10137800A34222DD611989B24A1E12B2002A1CDB7F
:10138800002CBCBF0DB200249342DCBF1B1B1DB256
:10139800336830465B6998470123009330462B46F3
:1013A800CDF804803A462146FFF7FEFE3368DB6A33
:1013B800304602B0BDE8F041184702B0BDE8F08100
:1013C8002DE9F3410F1EBDF82080064614461D4640
:1013D80031DBB0F90C30BB422DDD002D2BD005DA06
:1013E800013414FA85F46D4224B22DB2B6F90E30E8
:1013F800A34220DD611989B24A1E12B2002A1ADB03
:10140800002CBCBF0DB200249342DCBF1B1B1DB2D5
:10141800336830465B6998473046CDE90058012368
:1014280022463946FFF7C0FE3368DB6A304602B011
:10143800BDE8F041184702B0BDE8F081002A73B555
:1014480025DBB0F90E40944221DD002B1FD005DAD0
:10145800013111FA83F15B4209B21BB2B0F90C40B9
:101468008C4214DDCE18B6B2751E2DB2002D0EDBDF
:101478000029BCBF33B20021AC42DCBF641A23B2DE
:10148800BDF81840019401240094FFF78DFE02B0C6
:1014980070BD73B5002925DBB0F90C408C4221DD05
:1014A800002B1FD005DA013212FA83F25B4212B226
:1014B8001BB2B0F90E40944214DDD618B6B2751EB0
:1014C8002DB2002D0EDB002ABCBF33B20022AC4285
:1014D800DCBFA41A23B2BDF81840CDE900340123BB
:1014E800FFF762FE02B070BD70B590F83420044674
:1014F8000D4622B9BDE87040406AFEF7D6BF012A02
:1015080018D108262B0694F9240010D5FFF708FDFA
:1015180094F92600FFF7FEFC013E94F92600FFF738
:10152800F6FC6D0016F0FF06EDB2EBD170BDFFF7CB
:10153800F4FCEDE7FFF7E7FDF8E738B504460D469C
:1015480090F93700FFF7EFFC20462946FFF7CCFF5C
:1015580094F93700BDE83840FFF7E8BC036870B578
:101568005B690D460446984755B194F83C102046EF
:10157800FFF7E3FF23682046DB6ABDE870401847A1
:1015880094F83D10F3E770B590F8346005460C46C2
:101598005EB93246090A406AFEF787FF686A324632
:1015A800E1B2BDE87040FEF780BF012E18D11026C9
:1015B800230495F9240010D5FFF7B2FC95F926000D
:1015C800FFF7A8FC013E95F92600FFF7A0FC640090
:1015D80016F0FF06A4B2EBD170BDFFF79EFCEDE755
:1015E800FFF791FDF8E773B5002904461D4617DBA0
:1015F800B0F90C308B4213DD002A11DBB0F90E3044
:1016080093420DDD066801230093766D92B289B28C
:10161800B0472946204602B0BDE87040FFF7B3BF87
:1016280002B070BD2DE9F3410D1E044616461F4653
:1016380020DBB0F90C30AB421CDD002A1ADBB0F914
:101648000E30934216DD03685B69984722680123D0
:101658000093D2F85480A9B2B2B22046C0472046BF
:101668003946FFF790FF2368DB6A204602B0BDE8E1
:10167800F041184702B0BDE8F081F8B504460E46BF
:1016880015461F46FFF716FD94F93600002801DBC2
:10169800FFF74FFC94F93700FFF745FC3146204629
:1016A800FFF722FF94F93700FFF740FC0026B74206
:1016B80009DC94F93600002801DBFFF73DFC2046E1
:1016C800FFF70EFDF8BD94F83430022B09D194F8D9
:1016D800273033B135F8021B2046FFF754FF013697
:1016E800E5E715F8011B2046FFF7FEFEF7E7F8B51A
:1016F80004460E4615461F46FFF7DCFC94F93600F3
:10170800002801DBFFF715FC94F93700FFF70BFC05
:1017180031462046FFF7E8FE94F93700FFF706FC4C
:101728000026B74209DC94F93600002801DBFFF7F0
:1017380003FC2046FFF7D4FCF8BD94F83430022BA4
:1017480009D194F8273033B135F8021B2046FFF74A
:101758001AFF0136E5E715F8011B2046FFF7C4FE1E
:10176800F7E7028BC08A101A7047C28A018B914230
:1017780088BF0169034683BF885C0132DA824FF073
:10178800FF307047028BC38A9A4286BF0269D05CD9
:101798004FF0FF307047836810B5044613B1032239
:1017A80001469847204610BD70B54FF47A730E462F
:1017B8000021C0E90113034615462B4A43F8C42B00
:1017C8000446C0F8C4109C22C3E90111C0E93411D1
:1017D800C0E93611C0F8E010283004F01BF9F3B264
:1017E8004A2B19D8214A52F8233006F4E0661E43E2
:1017F800EBB24A2BC4F8846022D81C4A52F8233032
:1018080005F4E0651D430023C4F88850E361238490
:101818002361A382204670BD06F0C002C02A0CD105
:10182800CF2B0AD8124B06F03F0206F4E06653F8B5
:1018380022200E4B53F82230D9E74FF0FF36D7E776
:1018480005F0C002C02A0CD1CF2B0AD8084B05F0EE
:101858003F0205F4E06553F82220044B53F8223088
:10186800D0E74FF0FF35CEE700650008EC6C0008C4
:10187800AC6C000838B50446283000F0A9F8E069D7
:1018880018B103F0DBFF0023E361206900252584FC
:1018980010B103F0D3FF2561A58238BD38B50546E0
:1018A800074B45F8D43B0446FFF7E4FF2846FFF70B
:1018B80072FF04F1C400FFF76EFF204638BD00BF79
:1018C80000650008B1F5806F70B505460C4610D864
:1018D800038C99420AD920290E4638BF2026C069B0
:1018E800314604F061F818B1E8612E84204670BDD5
:1018F800FEE70024FAE713B590F824308DF80710B6
:1019080004467BB1418C0131FFF7DCFF40B1638CA9
:10191800E2699DF80710D154638C01336384012078
:1019280002B010BD01220DF10701283000F0A0F827
:10193800B0FA80F04009F3E770B590F82430044617
:101948000E46154693B1418C1144FFF7BBFF10B901
:101958000025284670BD638CE0692A461844314644
:1019680004F096F8638C2B446384F2E792B2283033
:1019780000F07EF80028EBD1EBE70346006918B1C8
:101988009A8A002104F046B870470346C06918B126
:101998001A8C002104F03EB8704738B5044600257B
:1019A800C5820583FFF7E9FF65842046FFF7EDFF51
:1019B80038BD0000024803220221FFF7F5BE00BF30
:1019C800680100200148FFF769BF00BF68010020D7
:1019D80010B5044690F9640000F050FA94F96500D7
:1019E80000F04CFA201D00F012FB206E032102F0DB
:1019F80047FDE06D032102F043FD2368184A934236
:101A08000DD1184B1A6A42F400121A621A6A22F4AB
:101A180000121A621A6C22F400121A6410BD124ADB
:101A280093420CD10F4B1A6A42F480021A621A6A66
:101A380022F480021A621A6C22F48002EDE70B4A43
:101A48009342EBD1074B1A6A42F400021A621A6AEF
:101A580022F400021A621A6C22F40002DDE700BFC9
:101A6800005400400038024000580040005C00402C
:101A7800202A30B514D800239CB2A24207D890F887
:101A880094301344DBB280F89430002030BD90F8D5
:101A98009440CD5C1C440444013384F87450EBE753
:101AA8000120F3E770B590F89130012B04460D46FC
:101AB800A0F1040609D1436E3BB1836E30469847C6
:101AC800022384F89130002363668DB9E36E84F8AD
:101AD80091501BB184F890503046984794F8902064
:101AE80004F1700120462023BDE8704000F0A8BA38
:101AF80000230122636684F89120616E74313144B9
:101B080020460423BDE8704000F0D5BA10B590F81F
:101B18009130012B044604D1436E13B1836E04380F
:101B28009847022384F89130002363662046BDE875
:101B3800104000F0FBBA436E1F2BDEBF436E01332B
:101B4800436690F89130012BDAB205D1416E7031BD
:101B58000423014400F0AFBA7047002380F89030A6
:101B6800704790F892300BB900F0E0BA7047000067
:101B7800014B186800F05ABC4C020020014B186851
:101B880001F0A6B84C020020014B586800F04EBC8A
:101B98004C020020014B586801F09AB84C02002012
:101BA800014B986800F042BC4C020020014B986839
:101BB80001F08EB84C020020203100231A46C9B229
:101BC800FFF795BDF8B5154B05460022914208BFB1
:101BD8001946FFF7E7F995F93530002B08DA0023A5
:101BE80028461A460121FFF782FD962003F0FEFDE4
:101BF8000B4C217811B90B4BEB60F8BD6678A71C2C
:101C080006F07F0423463A462846FFF770FD330660
:101C18003C44EED5962003F0E9FDEAE700366E0174
:101C280084650008F000400113B501F003010229A2
:101C380014D0032914D0012917D04824F0224FF4D6
:101C4800A07381768281C3810DF1070201233621B9
:101C58008DF80740FFF711FD02B010BD8824EDE7AD
:101C6800E8244FF4A072F023EBE72824F9E70000FA
:101C78002DE9F047DFF88CA0BDF82050DFF88890F8
:101C88005E1EBAF80030013D0E4415448B420446EE
:101C980088461746B6B2ADB203D1B9F80030B342A0
:101CA8000FD02A212046FFF748FC41462046FFF77F
:101CB8006AFC31462046FFF766FCAAF80080A9F8BE
:101CC8000060DFF848800E4EB8F80030BB4202D101
:101CD8003388AB420ED02B212046FFF72EFC394625
:101CE8002046FFF750FC29462046FFF74CFCA8F891
:101CF8000070358020462C21BDE8F047FFF71DBC59
:101D0800000000200600002004000020020000203F
:101D180013B5CDE900230B464FF4A072F021044619
:101D2800FFF72EF9024B2360204602B010BD00BF1A
:101D38002C6500087047000038B50E4B1A784FF430
:101D48007A73B3FBF2F30C4A05461068B0FBF3F064
:101D580000F0A6F8044658B90F2D09D802462946BE
:101D68004FF0FF3000F04AF8044B20461D6038BDA4
:101D78000120FCE7080000203C0000200C000020A7
:101D880008B50B4B1A6842F400721A601A6842F4DC
:101D980080621A601A6842F480721A60032000F0A8
:101DA8001BF80020FFF7C8FFFFF7C4FF002008BD9D
:101DB800003C0240034A044B11681B780B44136033
:101DC800704700BF5802002008000020014B186827
:101DD800704700BF580200200749CA6822F4E06231
:101DE8000302120403F4E063120C134343F0BF63CD
:101DF80043F40033CB60704700ED00E0164B30B57C
:101E0800DC68C4F30224C4F10703251D042B28BF92
:101E18000423062D4FF0FF358CBF033C002405FA40
:101E280003F321EA0303A54022EA0502A3400028A0
:101E380043EA0203ACBF00F16040084A4FEA0313CB
:101E4800B8BF00F00F00DBB2AABF00F56140135421
:101E580080F8003330BD00BF00ED00E014ED00E075
:101E6800002807DB044A4109012300F01F008340D2
:101E780042F82130704700BF00E100E000280CDB89
:101E88004309064900F01F0020330122824041F82F
:101E98002320BFF34F8FBFF36F8F704700E100E03F
:101EA8000138B0F1807F0BD24FF0E023054A58612A
:101EB800F02182F823100020072298611A617047E8
:101EC8000120704700ED00E0002808DB43090449C1
:101ED80000F01F0001226033824041F82320704740
:101EE80000E100E0704708B5FFF7FCFF08BD704748
:101EF80010B5044650B1437903F0FF0213B90271DB
:101F0800FFF7F5FF01236371002010BD0120FCE7F6
:101F180010B5044640B10223037102F00DF9002008
:101F280020616071207110BD0120FCE710B501230C
:101F380058B1046801F01001226803FA01F122EA9D
:101F4800010222600371002010BD1846FCE770B53D
:101F58000446866DFFF73AFF94F83530022B0546A4
:101F680006D0802363650120002384F8343070BDD7
:101F780023681A6822F016021A605A6922F0800251
:101F88005A61226C0AB9A26C1AB11A6822F00802C6
:101F98001A601A6822F001021A602368186810F0A3
:101FA800010007D1E26D3F239340B360012384F819
:101FB8003530D9E7FFF70AFF401B0528EDD9202364
:101FC8000320636584F83500CEE790F83530022B9E
:101FD80003D080234365012070470268052380F8F9
:101FE8003530136823F0010313600020704790F820
:101FF80035007047044A5169014208B502D0506162
:1020080002F05AF908BD00BF003C0140704710B506
:10201800044698B10268242380F83D30136823F001
:1020280001031360FFF7F2FF0020206484F83C00EE
:1020380084F83D00206384F83E0010BD0120FCE7D1
:1020480037B5044690F83D0000F02800282830D124
:1020580000292CD0002A2AD094F83C00012828D046
:1020680025682868C0075EBF286840F0010028601E
:10207800286820F400602860292084F83D0020208A
:1020880084F83E00002020646285628DE36201903E
:102098006B690193AB69019384F83C00019B6B6801
:1020A800616243F4E06322856B6003B030BD0120B8
:1020B800FBE70220F9E737B5044690F83D0000F049
:1020C8002800282830D100292CD0002A2AD094F8BA
:1020D8003C00012828D025682868C0075EBF28680A
:1020E80040F001002860286820F4006028602A2059
:1020F80084F83D00202084F83E000020206462859A
:10210800628DE36201906B690193AB69019384F876
:102118003C00019B6B68616243F4E06322856B605D
:1021280003B030BD0120FBE70220F9E790F83D300D
:10213800202B14D1282380F83D3003681A68D20771
:102148005EBF1A6842F001021A601A6842F480629F
:102158001A605A6842F440725A60002070470220A0
:10216800704770477047704790F83D2008B5036D79
:10217800D2B283B9C36C0268012B836C05D1DBB280
:102188001361036D0233036508BDC3F307231361AD
:10219800036D0133F7E7036D012B03D1836C0268EC
:1021A800DBB2F4E7036D022B2FD1222A05D1026896
:1021B800136843F480731360EAE7438D9BB263B1FD
:1021C800212A0AD1436A026813F8011B116143628C
:1021D800438D013B9BB24385D6E7438D9BB2002BD1
:1021E800D2D1212AD0D10268516821F4E06151602E
:1021F800116841F4007111602022036380F83D20CA
:1022080080F83E30FFF7AFFFBEE703685A69120651
:1022180044BF00221A61B7E77047704737B50023FB
:1022280001932D4B806B1B6890F83D2046F2A81156
:10223800B3FBF1F323214B4301930368D2B2019915
:1022480041BB016C41F020010164446B0CB10021D9
:10225800E163816B09B10025CD631D6825F48065B4
:102268001D600025458504B1256501B10D65196816
:1022780021F00101196090F83D10602911D1202347
:1022880080F83D30002380F83E300364FFF7C5FF37
:1022980003B030BD01990139019119688905CED47F
:1022A800D3E702F02802282A0ED1196841F001016B
:1022B8001960196841F4806119600023036380F88C
:1022C8003D20FFF74EFCE3E7202380F83D30002354
:1022D80080F83E30F5E700BF3C00002010B590F8CC
:1022E8003D2090F83E30102BD9B204460368D2B294
:1022F80001D0402913D1222A11D1196821F4006193
:102308001960596811F4006106D1602A1EBF2022A5
:1023180084F83D2084F83E100022226307E002F092
:1023280028012829EDD10022226384F83D105A683B
:1023380012F400624FD05A68606B22F400625A604F
:1023480090F83530012B374B2BD00365FFF73DFE56
:1023580050B12268606B136823F0010313602023D7
:1023680084F83D30036D9847236C19071FBF226816
:10237800536823F4E063536094F83D30226C5207AD
:10238800DBB20DD5282B0BD1274BE362202200238B
:102398002363204684F83D2084F83E30FFF7B6FBDF
:1023A80010BDA06B0365FFF710FE0028DCD0236882
:1023B8005A69510605D51A69636A1A70636A013346
:1023C80063622268A06B136823F001031360202363
:1023D80084F83D30C6E794F83D10602915D12021D6
:1023E80084F83D1022645A69520605D51A69636A51
:1023F8001A70636A013363622268136823F0010369
:1024080013602046FFF709FFAEE75A69500605D565
:102418001A69636A1A70636A013363622046FFF7B8
:10242800A0FBA1E7252200080000FFFFF0B5036824
:1024380004465A68C66A90F83E0094F83D10102881
:102448008FB0C5B2C9B202D0402D40F0DD829F697D
:10245800586910F0010F07D1B6F52A0F02D0B6F16E
:102468002A4F51D10FB0F0BD96054DD5E26AB2F5AD
:102478002A0F0CD10122E26294F83E20402A11D1A1
:10248800226D52B9626C02F0FE021A61EAE7E26A52
:10249800B2F12A4FF0D10822EDE7626C42F0010256
:1024A800D2B2F2E72269B2F5804F1AD194F83D20F2
:1024B800212A626C11D102F0FE021A61626B0AB124
:1024C800D26B2AB9A26B002ACCD0D26B002AC9D011
:1024D8005A6842F400625A60C4E742F00102D2B27C
:1024E800EBE7226D32B9626CD21102F0060242F0BB
:1024F800F002CAE7226D012AB4D1626CD21102F04F
:10250800060242F0F102C0E7060703D5960501D599
:10251800626CE4E7860740F1E880960540F1E580C3
:1025280094F83E10E26A256B94F83D002228C9B25F
:1025380040F0D380206D40B9402906D101905A69F6
:1025480001929B690193019B8CE7216D89B92069F0
:10255800B0F5404F0DD102915A6902929A690292E0
:10256800029A1A6842F480721A60236D0133236557
:1025780078E7618D89B251B903915A6903929A69D2
:102588000392039A1A6842F400721A6019E0618D86
:1025980089B2012949D112F5803F1BD11A6822F46A
:1025A80080621A605A6812F400620CD01A6822F429
:1025B80080621A60002204925A6904929B6904930B
:1025C800049B0023D3E705925A6905929A690592FC
:1025D800059AD7E7082A1CD0202A1AD0122D0DD127
:1025E800012A16D11A6822F480621A600022069223
:1025F8005A6906929B690693069BE2E7102AF1D86E
:10260800824941FA02F2D707ECD41A6842F4806290
:10261800EBE71A6822F480621A60002207925A696E
:1026280007929A690792079AACE7618D89B20229E5
:1026380030D1102A03D87649D140CE0715D419686D
:1026480021F480611960196841F4006119605968C2
:102658000D0514D5202A1AD8072A0AD8012A0ED11E
:102668005A6842F480525A6009E0196841F480615E
:10267800ECE7A2F10801674ACA40D007F0D400226B
:1026880008925A6908929B690893089B99E712F582
:10269800803FE4E7196841F48061196059680905C9
:1026A80010D5202A16D8072A06D8012A0AD15A682E
:1026B80042F480525A6005E0A2F10801554ACA4026
:1026C800D207F4D4002209925A6909929B690993A6
:1026D800099B76E712F5803FE8E700220A925A69DB
:1026E8000A929B690A930A9BBCE67F0740F1948093
:1026F8005E6836053FF5B6AE070600F004063ED51F
:1027080050053CD5002E3DD194F83D20258D94F8F8
:102718003E10E06AD2B2C9B2C5B9212A18D1082838
:1027280058D0202856D010F5803F53D05A6822F44C
:10273800E0625A6011232363002384F83E3020238B
:1027480084F83D302046FFF70CFD8BE6212A05D0A2
:1027580040297FF487AE222A7FF484AE628D92B23C
:102768001AB95A6822F48062B5E694F83E20402AE5
:1027780016D120460FB0BDE8F040FFF7F5BC002E9B
:102788003FF470AE97057FF56DAE212939D1E16A26
:1027980094F83D20212A7FF465AE628D92B24AB149
:1027A800626A12F8011B19616262638D013B9BB278
:1027B800638557E608290DD020290BD011F5803FF5
:1027C80008D0596821F4E06159601123236384F823
:1027D8003E20B4E75A6822F4E0625A601A6842F46C
:1027E80000721A6000232022236384F83D2094F8A5
:1027F8003E2084F83E30402A2046A4D1FFF7B3FC9F
:1028080030E6402D7FF42EAEB3E700BFEBFFFEFFAE
:10281800140001000101000159680E053FF522AEC0
:10282800450600F0040140F18680500540F18380A0
:10283800002940F0838094F83D20222A7FF412AECC
:10284800E06A628D92B2032A14D91A69636A1A700F
:10285800636A01336362638D013B9BB26385638D59
:102868009BB2032B7FF4FEAD2268536823F4806388
:102878005360F7E5E56A022D3FF473AF012A3FF68E
:1028880070AF7B4A0B91126846F2A811B2FBF1F2C5
:1028980002EB82020B920B9A013A0B920B99D1B977
:1028A800226C42F0200222645A6822F4E0625A60E4
:1028B8001A69636A1A70636A01336362638D013B44
:1028C8009BB26385202384F83D30204684F83E106F
:1028D800FFF747F9C6E51A6812F40072DBD11968E8
:1028E80021F480611960596821F4E061596019691F
:1028F800636A1970636A01336362638D013B9BB23B
:102908006385202384F83D3094F83E3084F83E20D7
:10291800402B04D122632046FFF77EFCA2E508285D
:1029280001D0202801D1002300E012232363204690
:10293800FFF718FC96E500293FF494AD92057FF562
:1029480091ADE26A608D616A80B2042809D15A6843
:1029580022F480625A601B690B70636A01336362F8
:1029680023E7608D80B203280CD15868042A20F42C
:1029780080605860EFD0022AEDD01A6822F4806295
:102988001A60E8E7608D80B20228E4D1042A33D0C7
:1029980007D8012A07D0022A2ED0186840F4007000
:1029A80004E0102AF9D1186820F4806018601B69C7
:1029B8000B70616A4B1C6362638D013B9BB263853C
:1029C80023681B694B70636A216801336362638DF6
:1029D800013B9BB263854B6823F440734B60202313
:1029E80084F83D3094F83E30402B4FF0000384F8D3
:1029F8003E3005D123638EE7186840F48060D5E740
:102A0800082A90D0202A8DE7206C18B35869002531
:102A180087072FD596052DD5226C02B19D6994F8AC
:102A28003D2002F02802282A17D15A682F0622F4DE
:102A380080625A60C5F3800154BFE268A26900232E
:102A480081F00101C9B284F83C3092B22046FFF708
:102A580029F807E59D695869DAE700220C92596957
:102A68000C919B690C930C9B84F83C20FAE400BF02
:102A78003C000020C60640F1B180950540F1AE80CB
:102A880094F83D505A6822F4E0625A6000220D9290
:102A98005A690D921A6842F001021A600D9A1A6872
:102AA80022F480621A605A681005EDB220D505F04C
:102AB800F702222A4AD1A06B0268526892B2628554
:102AC800628D92B21AB1226C42F0040222645A68F2
:102AD80022F400625A60FFF78AFA012808D0A06B36
:102AE800794B0365FFF771FA10B1A06B036D984736
:102AF800638D9BB213B323685A69510709D51A69C4
:102B0800636A1A70636A01336362638D013B9BB227
:102B1800638523685A69520609D51A69636A1A7067
:102B2800636A01336362638D013B9BB26385638D86
:102B38009BB21BB1236C43F004032364236C13B3CF
:102B480020460FB0BDE8F040FFF7C8BB606B0268D5
:102B5800526892B26285628D92B21AB1226C42F0CA
:102B6800040222645A6822F400625A60FFF73FFAAE
:102B78000128BDD0606B544B0365FFF726FA002887
:102B8800B6D0606BB2E72A2D06D12363282384F8D8
:102B98003D302046FEF7CFFF94F83D30282B0CD16E
:102BA8004A4BE362202200232363204684F83D2019
:102BB80084F83E30FEF7AAFF54E4236B222B02D0A0
:102BC800222D7FF44FAC00232022236384F83D207C
:102BD80084F83E302046FEF7AEFF43E401F0F701EB
:102BE800212900F0040535D1070627D5560525D536
:102BF8003DBB94F83D00628D92B2C0B2002A3FF40A
:102C080031AC626A12F8015B1D616262628D013A41
:102C180092B26285628D92B2002A7FF423AC292891
:102C28007FF420AC5A6822F480625A60282321631A
:102C3800204684F83D30FEF790FF13E4002D3FF462
:102C480011AC95057FF50EAC628D92B2002A3FF467
:102C580009ACA5E5400627D5510525D53DBB94F817
:102C68003D20618D89B2D2B200293FF4FBAB1969CE
:102C7800636A1970636A01336362638D013B9BB2B7
:102C88006385638D9BB2002B7FF4ECAB2A2A7FF41B
:102C9800E9AB2268536823F48063536022232363DB
:102CA800282384F83D3095E7002D3FF4DBAB9205EF
:102CB8007FF5D8AB628D92B2002A3FF4D3AB1A6984
:102CC800636A1A7049E600BF252200080000FFFF6A
:102CD800F8B503685F695E6890F83E2017F4807560
:102CE8000446D2B206D016F480751EBF6FF4807108
:102CF80059610125B80506D5F10542BF6FF4007189
:102D080045F002055961780536D5F10534D5608D51
:102D180094F83D10D4F830C0202A80B2C9B25FD1EF
:102D280000285DD101F0F700212804D0282957D1C7
:102D3800BCF1210F54D194F83D20E16A0829D2B2A0
:102D480001D020292AD1282A28D12E4AE2625A689D
:102D580022F4E0625A606FF480625A611A6822F4C1
:102D680080621A60002320222363204684F83D20D5
:102D780084F83E30FEF7CAFE3A053FD5F3053DD547
:102D880023686FF4006245F008055A61236C1D43FF
:102D980025642046BDE8F840FFF7A0BA212A1BD1D8
:102DA8001849E16222630021202284F83D2084F83A
:102DB8003E105A6822F4E0625A606FF480625A61E9
:102DC8001A6822F480621A605A69100648BF1961AD
:102DD8002046FEF7C2FECFE76FF480625A61CBE768
:102DE8006FF48061102A596145F0040501D0402A2A
:102DF800C2D11A6842F400721A60BDE7002DC5D12D
:102E0800F8BD00BF0000FFFF2DE9F341044640B3C1
:102E18000368DE0710D423689D075BD4236819076D
:102E280000F19D8023685A0700F1BD80A369002B3B
:102E380040F0248100202CE08D4B9A6802F00C02AF
:102E4800042A07D09A6802F00C02082A0BD15B68A2
:102E5800590208D5864B1B689A03DCD56368002B9A
:102E6800D9D1012015E06368814DB3F5803F13D1B6
:102E78002B6843F480332B60FEF7A8FF7C4E054691
:102E880033689B03C7D4FEF7A1FF401B6428F7D91A
:102E9800032002B0BDE8F081B3F5A02F04D12B6860
:102EA80043F480232B60E3E72A6822F480322A6007
:102EB8002A6822F480222A60002BDDD1FEF786FFE3
:102EC80006462B689F03A6D5FEF780FF801B642863
:102ED800F7D9DDE7664B9A6812F00C0F07D09A68AD
:102EE80002F00C02082A11D15B685D020ED4604A18
:102EF8001368990702D5E368012BB2D113682169D9
:102F080023F0F80343EAC103136087E7E268594BEB
:102F1800B2B101221A60FEF759FF554D06462B68DB
:102F28009B0707D52B68226923F0F80343EAC203FD
:102F38002B6073E7FEF74AFF801B0228EFD9A7E74B
:102F48001A60FEF743FF4A4E054633689F077FF530
:102F580065AFFEF73BFF401B0228F6D998E7626988
:102F6800444B82B10122C3F8802EFEF72FFF404E5A
:102F78000546736F9B073FF555AFFEF727FF401BCC
:102F88000228F6D984E7C3F8802EFEF71FFF384ED3
:102F98000546736F9F077FF545AFFEF717FF401B88
:102FA8000228F6D974E7324B1A6C12F0805228D1F5
:102FB80001921A6C42F080521A641B6C03F0805321
:102FC8000193019B01272C4D2B68D8051BD5A368BD
:102FD800274D012B27D12B6F43F001032B67FEF7F9
:102FE800F5FE234E054641F28838336F9A0739D5E6
:102FF800002F3FF41BAF1E4A136C23F08053136459
:1030080014E70027DFE72B6843F480732B60FEF793
:10301800DDFE06462B68D905D9D4FEF7D7FE801BFE
:103028000228F7D934E7052B04D12B6F43F00403AA
:103038002B67D0E72A6F22F001022A672A6F22F055
:1030480004022A67002BCAD1FEF7C0FE41F2883875
:1030580006462B6F9B07CBD5FEF7B8FE801B404575
:10306800F7D915E7FEF7B2FE401B4045BDD90FE77B
:10307800003802400000474200700040374DAA68FF
:1030880002F00C02082A3ED0022B354B4FF000020A
:103098001A662BD1FEF79AFE06462B6899011FD4B3
:1030A800D4E907321343626A43EA8213E26A43EAC5
:1030B8000263A26A5208013A43EA02436B60284B52
:1030C800264D01221A66FEF781FE04462B689A01F6
:1030D8003FF5B0AEFEF77AFE001B0228F6D9D7E618
:1030E800FEF774FE801B0228D7D9D1E6FEF76EFEE4
:1030F80004462B689B017FF59DAEFEF767FE001B1B
:103108000228F6D9C4E6012B3FF4ABAE6B68E2693E
:1031180003F4800191427FF4A4AE216A03F03F02D8
:103128008A427FF49EAE616A47F6C0721A40B2EBDB
:10313800811F7FF496AEA26A520803F44031013A27
:10314800B1EB024F7FF48DAEE26A03F07063B3EB2C
:10315800026F14BF012000209BE600BF0038024028
:1031680000004742134908B58B6803F00C03042B91
:103178001CD0082B1CD14A684B68496813F480039B
:1031880014BF0D480D48C1F3881118BF002302F081
:103198003F02A1FB0001FCF7FBFF064B5B68C3F392
:1031A800014301335B00B0FBF3F008BD0248FCE7C4
:1031B8000248FAE70038024000127A000024F400BE
:1031C8002DE9F0410D46044610B90120BDE8F08113
:1031D800434B1A6802F007028A4228D321688F07F6
:1031E8002DD4C80740D43E4B1A6802F00702AA4201
:1031F80065D8226851076BD4130707D5394A216966
:10320800936823F4604343EAC1039360FFF7AAFF7E
:10321800344B354A9B68C3F30313D35CD840334B14
:103228001860334B1868FEF787FD0020CEE7CAB256
:103238001A701B6803F007038B42C6D1CEE7294BEF
:1032480011F0040F1EBF9A6842F4E0529A600E070C
:1032580042BF9A6842F460429A609A68A06822F075
:10326800F00202439A60BCE762681E4B012A1CD137
:103278001B6813F4003FA8D01A4EB36823F0030369
:103288001343B360FEF7A2FD41F288380746B368DE
:10329800626803F00C03B3EB820FA4D0FEF796FD2F
:1032A800C01B4045F3D9032090E7911E01291B68F4
:1032B80002D813F0007FDEE713F0020FDBE7EAB273
:1032C8001A701B6803F00703AB427FF47EAF90E7E8
:1032D8000449E0688B6823F4E05303438B608BE771
:1032E800003C0240003802403C6600083C000020D8
:1032F8000C000020044B054A9B68C3F38223D35C6F
:10330800034A1068D8407047003802403466000805
:103318003C000020044B054A9B68C3F34233D35C4E
:10332800034A1068D84070470038024034660008E5
:103338003C000020704710B50446002855D0436A69
:10334800002B4ED14268B2F5827F00D0C3610023C2
:10335800A36294F8513003F0FF0223B984F8502097
:103368002046FFF7E7FF2168A068A269022384F8D6
:1033780051300B6823F040030B60636800F404408D
:1033880003F482730343E06800F400600343206998
:1033980000F002000343606900F00100034302F4F7
:1033A80000700343E06900F038000343206A00F02E
:1033B80080000343A06A00F4005003430B60636A73
:1033C800120C03F0100302F004021A434A60CB699E
:1033D80023F40063CB6100200123606584F8513039
:1033E80010BD0023C0E90433B1E70120F8E77047B6
:1033F8007047036870B5DD681E69B10704460DD5CE
:10340800AA070BD56FF002021A61012202779B69A5
:103418009B0769D000F0DFFD00232377710710D5E3
:103428006A070ED523686FF004021A610222227718
:103438009B6913F4407F20465CD000F0CCFD00234C
:10344800237733070FD528070DD523686FF00802B7
:103458001A6104222277DB699907204650D000F0D0
:10346800BAFD00232377F20610D5EB060ED52368A4
:103478006FF010021A6108222277DB6913F4407F8B
:10348800204643D000F0A7FD00232377F00708D596
:10349800E90706D523686FF001021A61204600F09B
:1034A80077FD320608D52B0606D523686FF0800213
:1034B8001A61204600F0B3F8700608D5690606D5EB
:1034C80023686FF040021A612046FFF791FFB206A9
:1034D80022D5AB0620D523686FF0200220461A615A
:1034E800BDE8704000F09AB800F073FD2046FFF781
:1034F8007EFF91E700F06DFD2046FFF778FF9EE71D
:1035080000F067FD2046FFF772FFAAE700F061FDB3
:103518002046FFF76CFFB7E770BD0000274A036835
:10352800904212D0B0F1804F0FD0A2F57C42904269
:103538000BD002F58062904207D002F5806290427B
:1035480003D002F57842904208D14A6823F070030C
:103558001343CA6823F44073134316E0184A904291
:10356800F7D002F580629042F3D002F58062904273
:10357800EFD0A2F598329042EBD002F580629042EB
:10358800E7D002F580629042E3D04A6923F08003D5
:1035980013438A68C2620A688262084A904203D06A
:1035A80002F58062904201D10A690263026842F022
:1035B800040202600122426103607047000001407A
:1035C8000040014010B5044630B390F83D3003F098
:1035D800FF021BB980F83C2001F0A0FA0223206802
:1035E80084F83D30211DFFF799FF012384F8463008
:1035F800002084F83E3084F83F3084F8403084F866
:10360800413084F8423084F8433084F8443084F8F8
:10361800453084F83D3010BD0120FCE77047704705
:10362800026802F10C0353E8003F23F490730C3254
:1036380042E8003102680029F2D102F1140353E88C
:10364800003F23F0010302F1140C4CE8003100297B
:10365800F3D1036B012B0BD102F10C0353E8003FAC
:1036680023F0100302F10C0C4CE800310029F3D1CF
:10367800202380F842300023036370470268C16842
:1036880038B5136923F440530B4313610546836827
:103698000069D168034368690343E86921F4164166
:1036A80021F00C0103430B43D3605369A96923F448
:1036B80040730B4353611F4B9A4203D003F5806359
:1036C8009A4224D1FFF726FEEA691921B2F5004F84
:1036D800D5E90043A0FB01011CD1DA184FF0000521
:1036E80045EB0503FCF754FD6422B0FBF2F102FB45
:1036F8001103DB003233B3FBF2F303F007025B0084
:1037080002EB011203F4F8731344A36038BDFFF70A
:10371800F1FDD9E79A009B0FFCF73AFD6422B0FB54
:10372800F2F102FB11031B013233B3FBF2F303EB9B
:103738000113EAE700100140704710B5044648B38A
:1037480090F8413003F0FF021BB980F84020FFF7E2
:10375800F3FF2268242384F84130D36823F400530C
:10376800D3602046FFF78AFF23681A6922F4904243
:103778001A615A6922F02A025A61DA6842F4005240
:10378800DA6000202023606484F8413084F84230F5
:10379800606310BD0120FCE710B5044668B390F8DB
:1037A800413003F0FF021BB980F84020FFF7C4FF47
:1037B8002268242384F84130D36823F40053D3606B
:1037C8002046FFF75BFF23681A6922F490421A61CA
:1037D8005A6922F022025A615A6942F008025A6173
:1037E800DA6842F40052DA6000202023606484F82A
:1037F800413084F84230606310BD0120FCE790F846
:103808004130202B10D189B182B1C28401628284F7
:10381800016800232122436480F84120CA6842F0ED
:103828008002CA601846704702207047012070471E
:1038380008B5806B0023C38501F07CFB08BD704789
:1038480090F84230222B07B542D181680268836A1A
:10385800B1F5805F3FD1016900293FD15268C2F3B9
:10386800080223F8022B8362C38D013B9BB2C385F8
:10387800002B2DD10268D16821F02001D160D168D8
:1038880021F48071D160516921F001015161202238
:1038980080F842204363026B012A026828D103633F
:1038A80002F10C0353E8003F23F0100302F10C0C63
:1038B8004CE800310029F3D11368DB0605D50191E6
:1038C8001368019353680193019B818DFFF7B7FF3C
:1038D80003B05DF804FB39B9016929B95268D2B25D
:1038E8001A70836A0133BEE7526802F07F02F7E775
:1038F80001F01AFBECE7000003681A6873B51607B5
:10390800D9685D69044608D1960668D58D0666D5DE
:1039180002B0BDE87040FFF793BF05F0010001F465
:10392800907505435BD0D60705D5CD0542BF636CBE
:1039380043F001036364530704D518B1636C43F083
:1039480002036364960704D518B1636C43F004035B
:103958006364150707D501F0200303431EBF636C9A
:1039680043F008036364636C002B32D0920604D5DD
:103978008B0602D52046FFF763FF26687369626CE1
:1039880003F0400302F0080253EA0205204622D061
:10399800FFF746FE73695E0618D5226802F1140324
:1039A80053E8003F23F04003143242E80031002975
:1039B800F3D1E06B50B1774B0365FEF706FB40B1DE
:1039C800E06B036D02B0BDE870401847204601F077
:1039D800B1FA02B070BD01F0ADFA6564F9E7206B89
:1039E800012840F09B80D50640F19880C80640F138
:1039F8009580002201921A6801925A680192019AF0
:103A08005A69A18D520656D5E06B0268526892B287
:103A1800002A47D0914245D9E285C269B2F5807F34
:103A280036D003F10C0252E8002F22F4807203F121
:103A38000C0040E800210029F3D103F1140252E8F8
:103A4800002F22F0010203F1140040E800210029B0
:103A5800F3D103F1140252E8002F22F0400203F1DF
:103A6800140040E800210029F3D1202284F84220E4
:103A7800216303F10C0252E8002F22F0100203F137
:103A88000C0040E800210029F3D1E06BFEF75FFA53
:103A980002236363E38DA18DC91A89B22046FFF71B
:103AA800CEFE96E7914294D1C369B3F5807F90D159
:103AB80002236363F2E7E28DE08D80B292B20028C0
:103AC80087D0891A89B2002983D003F10C0252E801
:103AD800002F22F4907203F10C0545E8002000281D
:103AE800F3D103F1140252E8002F22F0010203F18E
:103AF800140545E800200028F3D1202284F842204C
:103B0800206303F10C0252E8002F22F0100203F1A7
:103B18000C0545E800200028F3D1C9E7160628D58A
:103B28000D0626D594F84120212A7FF452AFA168CA
:103B3800226AB1F5805F17D12169A9B932F8021B51
:103B4800C1F3080159602262E28C013A92B2E28420
:103B5800002A7FF43EAFDA6822F08002DA60DA6881
:103B680042F04002DA6034E7511C216212785A6050
:103B7800EAE750067FF52DAF4A067FF52AAFDA68E7
:103B880022F04002DA60202384F84130204601F018
:103B9800CEF91EE73938000890F84030012B11D0D3
:103BA8000268242380F84130D36823F00C0343F0E3
:103BB8000803D360202380F84130002380F8403088
:103BC800184670470220704790F84030012B11D0FA
:103BD8000268242380F84130D36823F00C0343F0B3
:103BE8000403D360202380F84130002380F840305C
:103BF800184670470220704790F8412090F842001C
:103C080010437047C28500238285026943642223DA
:103C180080F84230816203681AB1DA6842F480722F
:103C2800DA605A6942F001025A61DA6842F0200209
:103C3800DA600020704770B590F84260202E07D1F6
:103C480041B13AB100240463FFF7DCFF204670BDA0
:103C58000220FCE70120FAE7836810B504462BB17F
:103C68000322014698470023C4E9023310BD00002F
:103C7800294A9042034633D0B0F1804F32D0A2F5A2
:103C88007C42904230D002F5806290422ED002F5FC
:103C9800806290422CD002F5806290422AD002F5D0
:103CA8008062904228D002F57042904226D04FF6AA
:103CB800FF701A4A934223D0194A934222D0194AD4
:103CC800934221D0184A934220D0184A93421FD0D9
:103CD800174A93421ED04FF6FF7398421BD1FEE756
:103CE8000020E6E70120E7E70220E8E70320E9E70C
:103CF8000420EAE70520EBE70620ECE707207047F9
:103D080008207047092070470A2070470B20704729
:103D18000C2070470D207047000001400040014012
:103D2800004401400048014000180040001C0040C9
:103D380000200040014670B5044651F8100FFFF707
:103D480097FF0546084600F095FD094A002342F80A
:103D5800253004F16006E36004F1B005B54204D0F3
:103D6800103D2846FDF717FDF8E7204670BD00BF57
:103D78005C020020F8B504460846FFF779FF23697E
:103D880003B1FEE71B4DA36404F10C0245F82020A3
:103D980004F110060E22C4E90C33C4E90E33C4E959
:103DA8001033C4E91623216184F82C3084F84C3090
:103DB80084F84D30E460304600F064FC04F160059E
:103DC80004F1B00728461035FFF746FFBD42F9D188
:103DD8000023C4E900334FF6FF72C4E90632C4E990
:103DE8000833A36063618023A3623046BDE8F840CE
:103DF800FFF7E8BB5C02002010B5074C206810B143
:103E08000430FFF7F6FA606A20B1BDE810400430CC
:103E1800FFF7EFBA10BD00BF5C020020034B186823
:103E280010B10430FFF7E5BA704700BF5C0200200C
:103E3800034B586810B10430FFF7DBBA704700BF76
:103E48005C020020034B986810B10430FFF7D1BA28
:103E5800704700BF5C020020034BD86810B10430E3
:103E6800FFF7C7BA704700BF5C020020034B186910
:103E780010B10430FFF7BDBA704700BF5C020020E4
:103E8800034B586910B10430FFF7B3BA704700BF4D
:103E98005C020020034B986910B10430FFF7A9BAFF
:103EA800704700BF5C02002010B5074CE06910B1F4
:103EB8000430FFF79EFA206B20B1BDE810400430B3
:103EC800FFF797BA10BD00BF5C020020034BD8690A
:103ED80010B10430FFF78DBA704700BF5C020020B4
:103EE800034B186A10B10430FFF783BA704700BF5C
:103EF8005C020020034B986A10B10430FFF779BACE
:103F0800704700BF5C020020034BD86A10B1043030
:103F1800FFF76FBA704700BF5C020020034B586B75
:103F280010B10430FFF765BA704700BF5C0200208B
:103F38000022C0E90022C0E902227047F8B5044611
:103F48000E4600F1600500F1B00728461035FFF76E
:103F5800EFFFBD42F9D10023204623613146FFF728
:103F680009FF2046F8BD826810B50AB901F0B8FF0C
:103F7800BDE81040C368184708B500B9FEE700F06F
:103F88007FFB0068836E13B16030FFF7ECFF08BD5C
:103F9800FFF7F2BF10B500B9FEE7037F013B072B1F
:103FA80010D8DFE803F004140F100F0F0F120124CC
:103FB80000F066FB0068063400EB041083680BB160
:103FC800FFF7D1FF10BD0324F2E70424F0E7022431
:103FD800EEE7FFF7DFBFFFF7DDBF01F027BC01F019
:103FE8002DBC00008AB0002308287CD8DFE800F048
:103FF8000513202D3A4754616E0001933B4B3C4812
:104008001A6B42F001021A631B6B03F00103019360
:10401800019B0AB070470293344B36481A6B42F042
:1040280002021A631B6B03F002030293029BF0E780
:1040380003932E4B30481A6B42F004021A631B6B31
:1040480003F004030393039BE3E70493274B2B48F4
:104058001A6B42F008021A631B6B03F008030493FF
:10406800049BD6E70593214B25481A6B42F01002B2
:104078001A631B6B03F010030593059BC9E70693AE
:104088001A4B20481A6B42F020021A631B6B03F08C
:1040980020030693069BBCE70793144B1A481A6B38
:1040A80042F040021A631B6B03F040030793079B1F
:1040B800AFE708930D4B15481A6B42F080021A635C
:1040C8001B6B03F080030893089BA2E70993074B37
:1040D8000F481A6B42F480721A631B6B03F48073E7
:1040E8000993099B95E7002093E700BF0038024039
:1040F800000002400004024000080240000C024098
:10410800001002400014024000180240001C024047
:104118000020024008B5074900F07AFAC0F3C4301D
:10412800012802D0022802D0FEE7002008BD102096
:10413800FCE700BF886C00080268094B9A420DD161
:1041480003F5E2331A6A42F000521A621A6A22F040
:1041580000521A621A6C22F000521A64704700BFAB
:104168000074004010B5094986B0044600F02EFAE4
:10417800019048B12046FFF7CDFF014601A8FDF7A1
:10418800D5FE01A8FDF7C4FE06B010BD886C000876
:10419800F8B51349134F064600F018FAFFF768FD03
:1041A80057F82030054673B9B020FFF716FF0C49C1
:1041B8000446304600F00AFA01462046FFF7BEFEE4
:1041C80057F825301C601C6844B12046FFF7B2FD43
:1041D8002046B021BDE8F840FFF701BFF8BD00BF99
:1041E8004C6900085C020020FDF7F0BD704708B577
:1041F800FDF7E0FDFDF777FEFFF7F8FF08BD704714
:1042080084B0114B00220192196C41F0805119645D
:10421800196C01F08051019101990292596C41F495
:1042280080415964596C01F48041029102990392CA
:104238001A6B42F480521A631B6B03F48053039386
:10424800039B04B0704700BF003802400C4BD3F802
:10425800FC20D2015EBFD3F8FC2042F08072C3F884
:10426800FC20084B00225A601A6842F001021A60CA
:1042780000BF00BF00BF5868B0FA80F0400970471F
:1042880000ED00E0001000E008B5FFF7B9FFFFF708
:10429800DDFFFDF775FDFFF7B2FF00F0FFFEBDE89B
:1042A80008400148FDF724BE340000200023C0E97F
:1042B8000033C0E9023370470023012803F10102EB
:1042C8000AD11422DBB25343054A181D10448168F1
:1042D80029B11A441369184740081346EDE7704797
:1042E800940200200120FDF785BE0220FDF782BE62
:1042F8000420FDF77FBE0820FDF77CBE1020FDF7E7
:1043080079BE08B52020FDF775FE4020FDF772FE46
:104318008020FDF76FFE4FF48070FDF76BFEBDE85F
:1043280008404FF40070FDF765BE38B506244FF419
:104338008065A8B2FDF75EFE013C4FEA4505F8D15D
:1043480038BD0000344A104608B5062300F8043B7F
:10435800FFF7ACFF072302F118001375FFF7A6FF5C
:10436800082302F12C0082F82830FFF79FFF092369
:1043780002F1400082F83C30FFF798FF0A2302F16F
:10438800540082F850301721FFF790FF02F16800BF
:1043980082F86410FFF78AFF02F17C0082F8781037
:1043A800FFF784FF02F1900082F88C10FFF77EFF80
:1043B80002F1A40082F8A010FFF778FF02F1B8001C
:1043C80082F8B4102821FFF771FF02F1CC0082F8BF
:1043D800C810FFF76BFF02F1E00082F8DC10FFF76E
:1043E80065FF02F1F40082F8F010FFF75FFF02F5B5
:1043F800847082F80411FFF759FF02F58E7082F875
:104408001811FFF753FFBDE8084002F5987082F8CD
:104418002C11FFF74BBF00BF9402002038B5054CA4
:10442800A4F5A075143C201DFDF7B5F9AC42F9D1EF
:1044380038BD00BFD403002030B591FAA1F391FA3A
:10444800A1F1B3FA83F3C4685B000325B1FA81F1E3
:1044580005FA03F3490024EA03038A401A43C260B9
:1044680030BD431C04D00C3151F80C3C5A1C01D10E
:1044780000207047834201F10C01F5D101207047FB
:10448800F8B5471C06460D4600D1FEE700F00F02BE
:10449800414BC0F3031053F82240FFF7A3FD94FAF1
:1044A800A4F3B3FA83F3876803225B0002FA03F3E9
:1044B80094FAA4F2B2FA82F227EA0307520003231D
:1044C80093403B4305F007018360032903D8DFE8E5
:1044D80001F05F612C03FEE7032394FAA4F2B2FA19
:1044E80082F206685200032707FA02F226EA020659
:1044F80094FAA4F2B2FA82F252009340013933439B
:104508000129036005D843682A074CBF2343A34306
:104518004360C5F30112012A02D0022A18BF002203
:104528002146BDE8F840FFF787BFC5F306227F2A7A
:1045380001D10223D1E7360716D5230A93FAA3F649
:10454800B6FA86F6476A93FAA3F3B6004FF00F0C53
:10455800B3FA83F30CFA06F69B0027EA060602FA7A
:1045680003F333434362E4E794FAA4F3B3FA83F31F
:10457800066A9B000F2707FA03F326EA030694FA54
:10458800A4F3B3FA83F39B009A4032430262D0E764
:104598000023A2E70123A0E7F4650008431C06D125
:1045A8007047834202D18968FFF76ABF0C310B68F4
:1045B8005A1CF6D1FEE70B685A1C01D1002070473F
:1045C800834201D1486870470C31F4E7431C01D09D
:1045D800FFF7F1BF002070474B6813B94FF0FF3069
:1045E8007047834201D1086870470C31F4E708B17D
:1045F800FFF7F2BF4FF0FF30704703460868421CD0
:1046080000D17047984201D1886870470C31F5E7AE
:10461800431C01D0FFF7F1BF704703468B420846A1
:1046280004D01BB100290CBF1846002070470000B9
:104638001049D1F8883043F47003C1F888300E4B24
:104648001A6842F001021A6000229A601A6822F081
:10465800847222F480321A60084A5A601A6822F476
:1046680080221A604FF43F02DA604FF000638B60DB
:10467800704700BF00ED00E0003802401030002411
:104688000438704703686D4A93428EB02AD10022DD
:1046980000926B4A516C41F001015164526C02F076
:1046A80001020092009A674A93422AD10022059299
:1046B800634A116C41F010011164126C02F010028F
:1046C8000592059A604A93422AD100230A935C4BCB
:1046D8005A6C42F480225A645B6C03F480230A9378
:1046E8000A9BA9E0B3F1804F2AD100220192544AD3
:1046F800116C41F001011164126C02F00102019287
:10470800019A524A93422AD1002206924C4A116CCD
:1047180041F020011164126C02F020020692069A00
:104728004B4A93422AD100230B93454B1A6C42F013
:1047380040021A641B6C03F040030B930B9B7BE055
:10474800444A93422AD1002202923D4A116C41F018
:1047580002011164126C02F002020292029A3E4AAD
:1047680093422AD100220792354A516C41F0020146
:104778005164526C02F002020792079A374A934238
:104788002AD100230C932E4B1A6C42F080021A6433
:104798001B6C03F080030C930C9B4DE0304A934252
:1047A8002AD100220392264A116C41F004011164B7
:1047B800126C02F004020392039A2A4A93422BD104
:1047C800002208921E4A516C41F480315164526CA7
:1047D80002F480320892089A234A93422CD100238B
:1047E8000D93174B1A6C42F480721A641B6C03F415
:1047F80080730D930D9B1FE01C4A93427FF453AFC7
:10480800002204920E4A116C41F008011164126CE6
:1048180002F008020492049A154A93427FF452AFB8
:1048280000230993064B5A6C42F400325A645B6CBD
:1048380003F400330993099B0EB070470000014050
:1048480000380240001000400048014000140040B9
:10485800001800400004004000040140001C004013
:10486800000800400040014000200040000C0040CB
:104878000044014003683B4A934215D13A494A6CC7
:1048880022F001024A64394A934215D136490A6C2A
:1048980022F010020A64364A934215D102F570429A
:1048A800536C23F480235BE0B3F1804F16D12E497B
:1048B8000A6C22F001020A642E4A934216D12A4950
:1048C8000A6C22F020020A642B4A934216D102F5A0
:1048D8000832136C23F0400313647047274A93424D
:1048E80015D121490A6C22F002020A64244A934233
:1048F80015D11D494A6C22F002024A64214A9342AA
:1049080015D102F50732136C23F08003E4E71E4A41
:10491800934215D114490A6C22F004020A641B4A16
:10492800934215D110494A6C22F480324A64184ADD
:104938009342D2D102F50632136C23F48073CBE78D
:10494800144A93429FD108490A6C22F008020A646B
:10495800114A93429FD102F57442536C23F40033F9
:1049680053647047000001400038024000100040C6
:1049780000480140001400400018004000040040B6
:1049880000040140001C00400008004000400140B5
:1049980000200040000C004000440140431C3AD075
:1049A800294B98423AD018D8A3F54063984237D09B
:1049B8000BD8A3F50063984234D003F5806398427E
:1049C80032D0B0F1804F31D0FEE7204B98422FD043
:1049D80003F5806398422DD0F6E71D4B98422DD001
:1049E8000CD8A3F56443984226D003F56043984257
:1049F80026D0A3F56443984220D0E5E7154B9842AA
:104A08001ED003F5806398421CD0A3F5006398423A
:104A1800DAD1182070476FF00D0070472B207047CF
:104A2800322070471D2070471E2070471C20704799
:104A380036207047372070472D2070472C2070474C
:104A4800192070471A2070470018004000100040D5
:104A58000004014000440140431C3AD02B4B9842CB
:104A68003AD01CD8A3F58053984237D00BD8A3F579
:104A78000063984234D003F58063984232D0B0F195
:104A8800804F31D0FEE7224B98422FD003F5806348
:104A980098422DD0A3F5006398422BD0F2E71D4B26
:104AA800984229D00CD8A3F58043984226D003F524
:104AB8008063984224D0A3F56443984222D0E1E76A
:104AC800154B984220D003F580639842DAD11A201A
:104AD80070476FF00D0070472C20704732207047E8
:104AE8001D2070471E2070471C20704737207047D4
:104AF8002B20704736207047182070471B207047BE
:104B08002E2070472D20704719207047001C004048
:104B180000140040004001400044014038B5FFF750
:104B2800B1FD04460068FFF739FFD4E91212FDF71A
:104B380065F92068FFF732FFFDF792F92268104601
:104B4800FFF78AFF05461046FFF728FF85420BD07E
:104B58002846D4E91212FDF751F92068FFF77CFFC7
:104B6800BDE83840FDF77CB938BD00002DE9F04FAD
:104B78008A4687B091469846044618B9002007B07F
:104B8800BDE8F08F8E49406DFFF720FD8D498346C3
:104B9800A06DFFF71BFD8C490646E06DFFF716FD7B
:104BA8008A490546206EFFF711FD0746BBF1000F45
:104BB800E4D0A36D013301D0002EDFD0E36D0133C3
:104BC80001D0002DDAD0236E013301D0002FD5D0CB
:104BD80031465846FFF721FD0346206020B90146BB
:104BE800FFF71BFD0346206029461846FFF715FD11
:104BF80039462060FFF711FD20600028BED0744BB5
:104C0800984251D1734A536A43F010035362536A6E
:104C180023F01003536200230093516C41F01001FC
:104C28005164526C02F010020092009A25226449E5
:104C3800606D84F8653084F86420FFF7AFFC1EB11E
:104C48006049A06DFFF7AAFC2DB15F49E06DFFF741
:104C5800A5FC4FF480752FB15C49206E45F40075B2
:104C6800FFF79CFC94F865205B4B94F96400C4F84A
:104C78000C90271D43F822702368C4E9013A109B61
:104C88000022C4E904380C23C4E906352262012154
:104C9800FDF7B4F83846002E40F08E80FEF77CFD14
:104CA800B0FA80F040096AE74C4B984217D103F5F7
:104CB800FA331A6A42F400321A621A6A22F400328B
:104CC8001A62002201921A6C42F400321A641B6CB8
:104CD80003F400330193019B26220123A7E7404BED
:104CE800984217D103F5F8331A6A42F480221A62FF
:104CF8001A6A22F480221A62002202921A6C42F482
:104D080080221A641B6C03F480230293029B2722DF
:104D180002238CE7334B984217D103F5F6331A6A0E
:104D280042F400221A621A6A22F400221A6200224D
:104D380003921A6C42F400221A641B6C03F40023D9
:104D48000393039B3422032371E7274B984217D11F
:104D580003F5F4331A6A42F480121A621A6A22F4CA
:104D680080121A62002204921A6C42F480121A64A9
:104D78001B6C03F480130493049B3522042356E729
:104D88001A4B98427FF4FAAE03F592335A6A42F00E
:104D980020025A625A6A22F020025A6200220592C0
:104DA8005A6C42F020025A645B6C03F020030593AE
:104DB800059B472205233AE7FEF7BFFC70E700BFD3
:104DC800BC6800082C680008E46700089C670008B5
:104DD8000010014000380240D40300200044004085
:104DE80000480040004C00400050004000140140C2
:104DF80008B5074B90F8652053F82200FEF7FCFE33
:104E080000F02200A0F122035842584108BD00BF1B
:104E1800D403002008B5074B90F8652053F822000A
:104E2800FEF7EAFE00F02100A0F1210358425841A4
:104E380008BD00BFD403002070B50E46054610B962
:104E48004FF0FF3070BDFFF7D3FF04460028F7D1BD
:104E58002946012211F8663F337095F86500034B27
:104E680053F82000FEF7E7FE2046EBE7D4030020C6
:104E780038B50D460446B8B1FFF7BAFFA0B994F9A2
:104E88006400E564FCF7FAFF94F86500074B04F149
:104E9800660153F820000122FEF7CDFE94F9640064
:104EA800BDE83840FCF7DCBF38BD00BFD4030020A4
:104EB80038B515460446B8B1016590F96400FCF7A9
:104EC800DDFFE36EB4F8761094F8650013FA81F10B
:104ED800064BAAB253F82000FEF791FC94F964003F
:104EE800BDE83840FCF7BCBF38BD00BFD403002084
:104EF80048B1836D013306D190F86520024B53F811
:104F08002200FEF749BE7047D403002048B1836DE4
:104F1800013306D190F86520024B53F82200FEF7C2
:104F280053BE7047D4030020836C04381847C36C01
:104F38000438184730B5044650F804391D6815F090
:104F4800010585B012D0002200921A6800925B68B1
:104F58000093009BFFF74CFF40BB012204F1620164
:104F6800204605B0BDE83040FEF765BE196811F06F
:104F7800020106D001951A6801925B680193019BB2
:104F8800E8E71A6812F0040206D002911A68029241
:104F98005B680293029BDDE719680907DAD503927B
:104FA8001A6803925B680393039BD3E705B030BD8F
:104FB80008B52520FCF788FF024B1868BDE80840B3
:104FC800FEF79ABCD403002008B52620FCF77CFF26
:104FD800034B586818B1BDE80840FEF78DBC08BD02
:104FE800D403002008B52720FCF76EFF034B986810
:104FF80018B1BDE80840FEF77FBC08BDD403002007
:1050080008B53420FCF760FF024BD868BDE80840BB
:10501800FEF772BCD403002008B53520FCF754FF16
:10502800024B1869BDE80840FEF766BCD4030020AF
:1050380008B54720FCF748FF024B5869BDE808400F
:10504800FEF75ABCD40300200A490346086810B585
:105058000344EFF30882934205D9074B0C221A60E8
:105068004FF0FF3010BD054A054C121B9342F4D295
:105078000B60F7E7400000206806002000000220CF
:1050880000040000FEE70000024B16221A604FF0F1
:10509800FF307047680600200120704730B595B092
:1050A800102200210AA800F0B5FC1422002103A850
:1050B80000F0B0FC244C00220092236C43F0805393
:1050C8002364236C03F080530093009B1F4B0192D1
:1050D8001A6842F480421A601B6803F48043019303
:1050E800019B01214FF480330225CDE908134FF4C9
:1050F80080030820CDE90E534FF4A873CDE91003BF
:10510800072308A812951393FDF77EFE00B1FEE76A
:105118000F23CDE9033505904FF4A0524FF4805387
:10512800052103A8CDE90623FEF74AF800B1FEE7FA
:105138000290236B43F480132363236B03F48013DF
:105148000293029B15B030BD003802400070004049
:10515800B0F80831B0F80421981A00F03F00704701
:10516800B0F80831B0F804219BB293421ABFD0F8C6
:10517800FC30985C4FF0FF30704790F80631B0F87B
:105188000A01C0B2834227BFC3F13F03C018C01A47
:1051980000F1FF30704707B503688DF807105B68AA
:1051A80001220DF10701984703B05DF804FB13B520
:1051B8000DF107010446FFF73FFE88B9B4F87430D3
:1051C800B4F87020013303F03F03934208D0B4F8D9
:1051D8007420A16E9DF8070092B28854A4F8743028
:1051E80002B010BDB0F87620816F11FA82F202F099
:1051F8003F0210B5A0F87620B0F87610B0F872200B
:1052080089B28A421AD0B0F87640B0F87610A4B2C3
:105218004032121B544289B204F03F0402F03F02AC
:10522800C1F1400158BF62428A4228BF0A468267DC
:105238000349FFF73DFE4FF0FF3010BD0020FCE7AB
:10524800ED5100082DE9F843036804469B68884639
:105258001646984701232374D4F8EC30B4F8067145
:1052680001338146C7F1400709D194F8113133B1B0
:10527800002384F8113104F19400FFF739FE236804
:1052880020469B6898470028F9D03546BD4225D866
:105298004D4523D8B4F80631D4F800015A19402AEC
:1052A800184430D82A46414600F0F2FB2F46B4F89D
:1052B80006311D4405F03F05A4F8065104F1940594
:1052C8002846FFF7A7FD30B91649C4F80C713A46CD
:1052D8002846FFF7EDFD3046BDE8F8834F452368C3
:1052E80028BF4F463A4641465B68204698472368A0
:1052F80020469B689847ED1BB844B4F80671814670
:10530800C7F14007C2E7C3F140073A46414600F0FB
:10531800BFFBD4F80001EA1B08EB070100F0B8FB5B
:10532800C5E700BFED510008C0F8F030009BC0F899
:10533800F430914208BF4FF0FF3100F11403C0E987
:105348003A21C0F8FC3000F154020023A0F80831DB
:10535800C0E94023A0F80A3170470000F7B54FF4C0
:105368007A7317460022C0E901231C4B03604FF0F3
:10537800FF33C0F8EC301A4B1A4E04469C42F06DCD
:105388000D4605D1B36DC4F8EC30C4F8E8000AE066
:105398001549FFF71BF9854215D1B36DC4F8EC30F8
:1053A800F36DC4F8E830012F4FF0FF3308BFC4F89D
:1053B800EC3000932046D4E93A214FF0FF33FFF751
:1053C800B3FF03B0F0BD09492846FFF710F90649B5
:1053D800C4F8EC002846FFF70AF9D6E7286E00085B
:1053E800EC030020EC6C0008BC6800082C6800087E
:1053F800037C70B504460D46A3B1FCF7E7FC0646EE
:10540800B4F80621B4F80A319BB29A420AD0002DAA
:10541800F8D0FCF7DBFC801B8542F1D8B4F80A31E0
:10542800A4F8063170BD0021FFF7E2BFD0F8EC30D8
:10543800013310B504460ED10368DB68984794F829
:10544800113143B9012384F8113104F19400BDE806
:105458001040FFF75BBD10BD7FB502F00703023BAC
:10546800DBB2042B144680F8122198BF204AC0F8FA
:10547800141198BFD25C04F0300388BF0022302B8F
:10548800054607D101324FF4C063082A09D0092A1A
:1054980024D0FEE714F0200325D001324FF48063B6
:1054A800F3E70022E87C0390A87C0290C4F3C004D0
:1054B800687C019005F19406640300943046FFF778
:1054C80055FB85F8100188B12846FFF7AFFF094959
:1054D800304604B0BDE87040FFF7CABC4FF48052B4
:1054E800E0E71A46DEE7082AFBD0D2E704B070BD31
:1054F800186E0008B751000810B50446FFF796FF6C
:10550800B4F80821B4F8043192B29A421FBFD4F813
:10551800FC20D05C013303F03F0314BFA4F804312E
:105528004FF0FF3010BD0000024903480022FFF78A
:1055380015BF00BF00100140EC0300202DE9F04129
:1055480006460D468F180C46BC4202D1601BBDE8CA
:10555800F0813368A0461B6818F8011B304698474D
:105568000028F3D04446EFE770B505460C460846D8
:1055780049B1FAF705FE2B680246214628465B68C2
:10558800BDE87040184770BD08B50249FFF7ECFF49
:1055980008BD00BF3D5F000838B50546FFF7E4FFCA
:1055A80004462846FFF7F0FF204438BDFFF7F4BF54
:1055B80010B5044600F018F9E060236820465B69DE
:1055C8009847002808DA00F00FF9E368C01AA368C2
:1055D8009842F2D34FF0FF3010BDF8B507460D469C
:1055E8008E180C46B44201D1601BF8BD3846FFF74F
:1055F800DFFF431CF8D004F8010BF3E72DE9F04175
:105608000746884616461D4673B100243846FFF7FC
:10561800CFFF431C05D0404503D030550134A54287
:10562800F4D12046BDE8F0811C46FAE708B503200E
:10563800FCF7D2FBBDE8084000F0F4B808B5AFF3BA
:105648000080FAF7DFFDFAF749FE00F0DDF8FAE727
:10565800DFF834D0FEF7ECFF0C480D490D4A002363
:1056680002E0D458C4500433C4188C42F9D30A4A0F
:105678000A4C002301E013600432A242FBD300F07D
:10568800E1F9FFF7DBFF704700000220000000206F
:10569800940000207C6E0008940000207006002012
:1056A800FEE70000C3B24A2B2DE9F0410D462AD887
:1056B8002C4A52F8233000F4E0641C43621C4ED09C
:1056C800294EC4F3031704F00F0856F8273023FABD
:1056D80008F3DB0710D525492046FEF7C2FE18B3AC
:1056E8002046FEF73FFD56F82730012202FA08F25D
:1056F80023EA020346F82730052D1FD8DFE805F016
:105708001F2B2527292D00F0C002C02A27D1CF2B17
:1057180025D8174B00F03F0200F4E06453F822202C
:10572800104B53F82230C8E712492046FEF799FE7D
:105738000028D8D02046FEF72BFDD4E7FEE700214D
:105748002046BDE8F041FEF79BBE1021F8E7202176
:10575800F6E70321F4E70121F2E70921F0E7BDE8C4
:10576800F08100BFEC6C000804050020886C00087C
:10577800AC6C00084C690008C3B24A2B19D8164A09
:1057880052F8233000F4E0601843431C10D0C0F3F3
:105798000313082B98BF114A00F00F0098BF52F866
:1057A80023200F4B88BF002253F8203091B193611A
:1057B800704700F0C002C02AFAD1CF2BF8D8094BA5
:1057C80000F03F0200F4E06053F82220024B53F847
:1057D8002230D9E71B04EAE7EC6C0008100000202F
:1057E800F4650008AC6C0008FEF7FEBC38B504464A
:1057F80048B1FEF7F9FC054600F016F8FEF7F4FC90
:10580800431BA342F8D338BD08B5044B2BB1044859
:10581800FFF79EFC08B1AFF3008008BD0000000050
:10582800EC030020FEF730BD70470000024B014634
:10583800186800F02DB800BF44000020024B014654
:10584800186800F033B900BF4400002070B50F4E4F
:105858000C463168054611B900F0E4F8306021467D
:10586800284600F0DFF8431C03D14FF0FF342046F0
:1058780070BDC41C24F00304A042F8D0211A2846A5
:1058880000F0D0F80130F2D1EFE700BF2805002082
:105898002DE9F843CD1C25F0030508350C2D38BF3C
:1058A8000C25002D064601DBA94204D90C233360E0
:1058B8000020BDE8F883DFF8D48000F069F8D8F854
:1058C80000301C4644BB29463046FFF7BFFF431C47
:1058D800044658D1D8F800402746002F43D1002C61
:1058E8004BD023683946304604EB030900F09AF898
:1058F800814542D121686D1A29463046FFF7A6FF37
:1059080001303AD023682B442360D8F800305A6815
:1059180062BBC8F800700FE02268521B20D40B2A23
:1059280017D96119A342256018BF5960636808BF79
:10593800C8F8001062514B60304600F02FF804F1AF
:105948000B00231D20F00700C21A1CBF1B1AA3500E
:10595800AFE76268A3420CBFC8F800205A60EBE7C3
:1059680023466468AEE73C467F68B6E71A465B683C
:10597800A342FBD100235360DEE70C23336030469B
:1059880000F00CF894E70560D6E700BF2C0500206E
:10599800014800F07BB800BF6C060020014800F009
:1059A80076B800BF6C060020024B0A46014618680C
:1059B80000F002B8440000202DE9F04107461446E3
:1059C8000D4621B9BDE8F0411146FFF761BF2AB97C
:1059D80000F06CF825462846BDE8F08100F0B0F8E4
:1059E8008442064602D8B4EB500FF4D82146384614
:1059F800FFF74EFF804608B94546ECE7B442224619
:105A0800294628BF324600F043F82946384600F0B8
:105A18004DF8F1E702440346934200D1704703F87A
:105A2800011BF9E738B5064D0023044608462B60EC
:105A3800FFF70AFB431C02D12B6803B1236038BD72
:105A48006806002070B50D4B0D4D5B1B9C100026A1
:105A5800A64209D100F048FA0A4D0B4B5B1B9C107B
:105A68000026A64205D170BD55F8043B984701367B
:105A7800EEE755F8043B98470136F2E7546E000804
:105A8800546E0008546E0008706E00087047704726
:105A98000A44914200F1FF3300D1704710B511F864
:105AA800014B03F8014F9142F9D110BD38B50546B5
:105AB800002941D051F8043C0C1F002BB8BFE41852
:105AC800FFF766FF1D4A136833B963601460284600
